:100000000C9434000C9453000C9451000C94510047
:100010000C9451000C9451000C9451000C9451001C
:100020000C9451000C9451000C9451000C9451000C
:100030000C9451000C9451000C9417010C94510035
:100040000C9451000C9451000C9451000C945100EC
:100050000C9451000C9451000C9451000C945100DC
:100060000C9451000C94510011241FBECFEFD8E026
:10007000DEBFCDBF11E0A0E0B1E0E0ECF2E002C0F5
:1000800005900D92AA30B107D9F721E0AAE0B1E0BE
:1000900001C01D92A131B207E1F70E94CC000C947F
:1000A0005E010C9400001F920F920FB60F92112464
:1000B0008F9380910E01811104C081E080930E0125
:1000C00006C010920E011092100110920F018F9134
:1000D0000F900FBE0F901F9018958FEF84B987B1C6
:1000E0008F6087B988B18F6088B952985A9A0895FD
:1000F00084B5826084BD85B5856085BD16BC80E110
:1001000087BDEEE6F0E08081826080830895AC01D7
:100110009C01369527953695279536952795A5EC1C
:10012000B0E20E944F01929582958F7089279F704F
:100130008927EAE0F1E08383638128E13CEF629F55
:10014000C001639F900D1124480F591F9A013695E5
:10015000279536952795ABE7B4E10E944F01969518
:1001600087958283828194E6899F401951091124E1
:100170009A01ADECBCEC0E944F019695879596953F
:10018000879596958795818381819AE0899F40190B
:1001900051091124408308950E946D000E94780047
:1001A000E89AE9E6F0E0808182608083789480912B
:1001B0000E018111FCCF80910F01909110010E94DE
:1001C000870080910F01909110018F30974250F479
:1001D00080910F01909110010196909310018093EE
:1001E0000F0104C01092100110920F0187EA91E6EE
:1001F0000197F1F700C00000DACF21E030E002C043
:10020000220F331F6A95E2F720952F7028B9E82F47
:10021000F0E0E050FF4F808185B981EE94E00197D6
:10022000F1F700C0000015B88FE088B908951F925B
:100230000F920FB60F9211242F933F934F935F931A
:100240006F937F938F939F93AF93BF93CF93DF93DE
:10025000EF93FF93CAE0D1E08B8160E00E94FD0044
:100260008A8161E00E94FD00898162E00E94FD00B8
:10027000888163E00E94FD00FF91EF91DF91CF91B3
:10028000BF91AF919F918F917F916F915F914F91AE
:100290003F912F910F900FBE0F901F901895A29F26
:1002A000B001B39FC001A39F700D811D1124911D4A
:1002B000B29F700D811D1124911D0895F894FFCFF8
:0A02C0003F065B4F666D7D077F6F00
:00000001FF
