S00C0000554152542E73726563DC
S11300000C9434000C9467010C9451000C9451002E
S11300100C9451000C9451000C9451000C94510018
S11300200C9451000C9451000C9451000C94510008
S11300300C9453000C9451000C9451000C945100F6
S11300400C9451000C9451000C94A7010C94510091
S11300500C9451000C945D000C9451000C945100CC
S11300600C9451000C94510011241FBECFEFD8E022
S1130070DEBFCDBF11E0A0E0B1E0E4ECF3E002C0EC
S113008005900D92A832B107D9F721E0A8E2B1E0BA
S113009001C01D92AE32B207E1F70E9446010C94F2
S11300A0E0010C9400001F920F920FB60F921124DE
S11300B00F900FBE0F901F9018951F920F920FB6BE
S11300C00F9211248F939F938091780090917900DF
S11300D090932901809328019F918F910F900FBED7
S11300E00F901F9018958BE284B91AB85A9A089504
S11300F0109280008BE08093810010928500109212
S11301008400EFE6F0E08081846080838EE99BE3E5
S1130110909389008093880090938B0080938A0049
S11301200895AC019C01369527953695279536950B
S11301302795A5ECB0E20E94D101929582958F702B
S113014089279F708927EAE2F1E0838368EE73E0F0
S1130150869F9001879F300D969F300D1124421B7E
S1130160530B9A013695279536952795ABE7B4E15D
S11301700E94D10196958795828364E6689F9001D9
S1130180699F300D1124421B530B9A01ADECBCEC5A
S11301900E94D10196958795969587959695879512
S11301A081839C01220F331F880F991F880F991F89
S11301B0880F991F820F931F481B590B4083089582
S11301C08EBD0DB407FEFDCF0895CF93DF930E943B
S11301D091002998CAE2D1E0E881F0E0E050FF4FB5
S11301E080810E94E000E981F0E0E050FF4F8081CF
S11301F00E94E000EA81F0E0E050FF4F80810E941D
S1130200E000EB81F0E0E050FF4F80810E94E000CD
S1130210299ADF91CF91089584B1886284B98DB50C
S113022081608DBD8CB580658CBD85B1877D85B9B8
S1130230089581E080937C0085E080937B0088EAC8
S113024080937A00089588E18093C10086E08093CA
S1130250C2001092C5008CE08093C4000895E0ECC5
S1130260F0E0908195FFFDCF8093C6000895CF9371
S1130270DF93EC018881882331F021960E942F01BD
S113028089918111FBCFDF91CF9108950E94730072
S11302900E940C010E947800E89AE9E6F0E080816F
S11302A0826080830E9419010E9423017894289817
S11302B080E090E00E94E5008AE091E00E9437012E
S11302C080912801909129010E94E500F9CF1F92A5
S11302D00F920FB60F9211242F933F934F935F9376
S11302E06F937F938F939F93AF93BF93CF93DF933A
S11302F0EF93FF9382E191E00E943701CAE2D1E0DB
S11303008B81805D0E942F018A81805D0E942F0174
S11303108981805D0E942F018881805D0E942F0168
S11303208FE091E00E943701FF91EF91DF91CF912F
S1130330BF91AF919F918F917F916F915F914F91F9
S11303403F912F910F900FBE0F901F9018951F9201
S11303500F920FB60F9211242F933F934F935F93F5
S11303606F937F938F939F93AF93BF93EF93FF9379
S11303708091C600803221F48BE191E00E94370124
S1130380FF91EF91BF91AF919F918F917F916F9169
S11303905F914F913F912F910F900FBE0F901F903F
S11303A01895A29FB001B39FC001A39F700D811D3A
S11303B01124911DB29F700D811D1124911D08956A
S10703C0F894FFCFDB
S11303C43F065B4F666D7D077F6F48656C6C6F0DF0
S11303D40A0056616C7565203D2000526F67657292
S10B03E420746861740D0A0025
S9030000FC
