:100000000C9434000C9430010C9451000C94510069
:100010000C9451000C9451000C9451000C9451001C
:100020000C9451000C9451000C9451000C94F3006A
:100030000C9451000C9451000C9451000C945100FC
:100040000C9451000C9451000C9451000C945100EC
:100050000C9451000C9451000C9451000C945100DC
:100060000C9451000C94510011241FBECFEFD8E026
:10007000DEBFCDBF11E0A0E0B1E0E4E4F3E002C0F8
:1000800005900D92AA30B107D9F721E0AAE0B1E0BE
:1000900001C01D92A231B207E1F70E947E010C94CB
:1000A000A0010C94000083E084B952985A9A0895F4
:1000B000109280008BE08093810010928500109256
:1000C000840088E09DE390938900809388000895E0
:1000D0001092850010928400EFE6F0E0808182604B
:1000E00080830895EFE6F0E080818D7F808308951E
:1000F000AC019C0136952795369527953695279521
:10010000A5ECB0E20E949101929582958F708927AB
:100110009F708927EAE0F1E0838368EE73E0869FB1
:100120009001879F300D969F300D1124421B530B79
:100130009A013695279536952795ABE7B4E10E944D
:10014000910196958795828364E6689F9001699FE7
:10015000300D1124421B530B9A01ADECBCEC0E94F4
:100160009101969587959695879596958795818324
:100170009C01220F331F880F991F880F991F880F2A
:10018000991F820F931F481B590B408308958EBD02
:100190000DB407FEFDCF0895CF93DF930E94780042
:1001A0002998CAE0D1E0E881F0E0E050FF4F80817B
:1001B0000E94C700E981F0E0E050FF4F80810E947B
:1001C000C700EA81F0E0E050FF4F80810E94C70045
:1001D000EB81F0E0E050FF4F80810E94C700299A38
:1001E000DF91CF9108951F920F920FB60F921124B5
:1001F0002F933F934F935F936F937F938F939F932F
:10020000AF93BF93EF93FF938091100190911101F1
:100210000E94CC0080911001909111018F30974283
:1002200050F4809110019091110101969093110169
:100230008093100104C01092110110921001FF91DF
:10024000EF91BF91AF919F918F917F916F915F914E
:100250004F913F912F910F900FBE0F901F901895C7
:100260001F920F920FB60F9211242F933F934F932B
:100270005F936F937F938F939F93AF93BF93EF930E
:10028000FF9380910E0190910F01892B49F481E039
:1002900090E090930F0180930E010E94680010C0BF
:1002A0000E94720080911001909111010E94CC0077
:1002B00010920F0110920E01109211011092100174
:1002C000FF91EF91BF91AF919F918F917F916F912E
:1002D0005F914F913F912F910F900FBE0F901F9004
:1002E000189584B1886284B98DB581608DBD8CB557
:1002F00080658CBD85B1877D85B908950E945300C6
:100300000E9471010E945800E89AE9E6F0E08081BD
:10031000826080837894289880E090E00E94CC00EE
:10032000FFCFA29FB001B39FC001A39F700D811D9D
:100330001124911DB29F700D811D1124911D0895EE
:04034000F894FFCF5F
:0A0344003F065B4F666D7D077F6F7B
:00000001FF
