:100000000C9434000C945D000C9451000C9451003D
:100010000C9451000C9451000C9451000C9451001C
:100020000C9451000C9451000C9451000C9451000C
:100030000C9453000C9451000C9451000C945100FA
:100040000C9451000C9451000C9451000C945100EC
:100050000C9451000C9467000C9451000C945100C6
:100060000C9451000C94510011241FBECFEFD8E026
:10007000DEBFCDBF11E0A0E0B1E0E2EBF2E002C0F4
:1000800005900D92AA30B107D9F721E0AAE0B1E0BE
:1000900001C01D92A031B207E1F70E942D010C941E
:1000A00057010C9400001F920F920FB60F9211246B
:1000B0000F900FBE0F901F9018951F920F920FB6C2
:1000C0000F9211240F900FBE0F901F9018951F9242
:1000D0000F920FB60F9211248F939F938091780007
:1000E0009091790090930B0180930A019F918F91D9
:1000F0000F900FBE0F901F9018958BE284B91AB81D
:100100005A9A0895109280008BE08093810010929B
:10011000850010928400EFE6F0E0808184608083A7
:100120008EE99BE3909389008093880090938B00E5
:1001300080938A000895AC019C01369527953695E9
:10014000279536952795A5ECB0E20E944801929537
:1001500082958F7089279F708927ECE0F1E0838377
:1001600068EE73E0869F9001879F300D969F300D5B
:100170001124421B530B9A013695279536952795E6
:10018000ABE7B4E10E94480196958795828364E6C7
:10019000689F9001699F300D1124421B530B9A01F7
:1001A000ADECBCEC0E944801969587959695879595
:1001B0009695879581839C01220F331F880F991F85
:1001C000880F991F880F991F820F931F481B590B87
:1001D000408308958EBD0DB407FEFDCF0895CF93E3
:1001E000DF930E949B002998CCE0D1E0E881F0E009
:1001F000E050FF4F80810E94EA00E981F0E0E0508A
:10020000FF4F80810E94EA00EA81F0E0E050FF4F5A
:1002100080810E94EA00EB81F0E0E050FF4F808196
:100220000E94EA00299ADF91CF91089584B18862F3
:1002300084B98DB581608DBD8CB580658CBD85B16F
:10024000877D85B9089581E080937C0085E0809367
:100250007B0088EA80937A0008950E947D000E94C6
:1002600016010E948200E89AE9E6F0E0808182604F
:1002700080830E9423017894289880E090E00E9477
:10028000EF0080910A0190910B010E94EF00F9CFDD
:10029000A29FB001B39FC001A39F700D811D1124C7
:1002A000911DB29F700D811D1124911D0895F89428
:0202B000FFCF7E
:0A02B2003F065B4F666D7D077F6F0E
:00000001FF
